:100000000C9434000C9451000C9451000C94510049
:100010000C9451000C9451000C9451000C9451001C
:100020000C9451000C9451000C9451000C9451000C
:100030000C9451000C9451000C9451000C945100FC
:100040000C9451000C9451000C9451000C945100EC
:100050000C946B060C94AD000C9451000C94510060
:100060000C94F0010C94510011241FBECFEFD8E086
:10007000DEBFCDBF11E0A0E0B1E0ECEDF5E102C0E4
:1000800005900D92AA33B107D9F722E0AAE3B1E0B7
:1000900001C01D92AA34B207E1F70E94F5040C9446
:1000A000EC0A0C940000CF93DF93CDB7DEB78CE75A
:1000B00090E020E4FC0120838AE790E02FE8FC0137
:1000C000208378940000DF91CF910895CF93DF9340
:1000D00000D0CDB7DEB79A8389838CE790E0FC012E
:1000E00020818CE790E02F60FC0120838CE790E07A
:1000F000FC0130818CE790E02FE02327FC01208376
:100100008CE790E0FC018081982F8981292F282B92
:100110008CE790E0FC0120838EE790E0FC01808179
:10012000282F81E090E0098002C0880F991F0A946F
:10013000E2F7282B8EE790E0FC0120838AE790E02D
:10014000FC0120818AE790E02064FC01208300000C
:100150000F900F90DF91CF9108951F920F920FB6DD
:100160000F9211242F933F934F935F936F937F933D
:100170008F939F93AF93BF93EF93FF93CF93DF93AF
:10018000CDB7DEB72C97DEBFCDBF88E790E0FC018E
:1001900080819181292F2F938F9380E091E0892F87
:1001A0008F9380E091E08F93CE0101969F938F9380
:1001B0000E9402080F900F900F900F900F900F90D9
:1001C000CE0101960E94A30600002C960FB6F8946B
:1001D000DEBF0FBECDBFDF91CF91FF91EF91BF91F9
:1001E000AF919F918F917F916F915F914F913F91CF
:1001F0002F910F900FBE0F901F901895CF93DF9304
:10020000CDB7DEB788EB90E020E8FC01208329EB36
:1002100030E089EB90E0F9012081FC01208387E246
:1002200090E0FC01208187E290E02F7CFC0120839C
:1002300088E290E0FC01208188E290E02063FC01EC
:10024000208378940000DF91CF9108950F931F933E
:10025000CF93DF93CDB7DEB72A970FB6F894DEBF02
:100260000FBECDBF09831A832B833C834D835E83EE
:100270006F83788789879A87000080913C019091ED
:100280003D0184309105C9F72AE0CE010196FC01B9
:10029000AAE3B1E001900D922A95E1F778948CEBF6
:1002A00090E025EAFC01208300002A960FB6F8941E
:1002B000DEBF0FBECDBFDF91CF911F910F9108958B
:1002C000CF93DF93CDB7DEB78CEB90E024E9FC0150
:1002D00020830000DF91CF910895CF93DF93CDB7B6
:1002E000DEB782E090E090933D0180933C018091E5
:1002F0003E0190913F01009789F420914001309197
:10030000410180914301882F90E0280F391F8BEB2A
:1003100090E0F9012081FC01208315C02BEB30E037
:10032000409140015091410180914301882F90E01C
:10033000840F951FF9012081FC0120838CEB90E054
:1003400020E4FC012083809143018F5F809343016F
:100350009091430180914201981750F08CEB90E00E
:10036000FC01108283E090E090933D0180933C017A
:100370000000DF91CF910895CF93DF93CDB7DEB723
:1003800080913C0190913D0183309105B1F0843022
:100390009105F0F4009729F0019782309105C0F49F
:1003A0000AC020913A0130913B018BEB90E0F901BA
:1003B0002081FC0120830E946D0184E090E09093F5
:1003C0003D0180933C018CEB90E020E1FC01208317
:1003D0008CEB90E0FC0110820000DF91CF9108953A
:1003E0001F920F920FB60F9211242F933F934F93AA
:1003F0005F936F937F938F939F93AF93BF93EF938D
:10040000FF93CF93DF9300D000D000D0CDB7DEB7FD
:1004100089EB90E0FC018081882F90E0887F99270C
:100420008830910509F46AC089EB90E0FC01808175
:10043000882F90E0887F99278831910509F45EC064
:1004400089EB90E0FC018081882F90E0887F9927DC
:100450008832910509F452C089EB90E0FC0180815B
:10046000882F90E0887F99278031910509F446C054
:1004700089EB90E0FC018081882F90E0887F9927AC
:1004800080349105D9F189EB90E0FC018081882FBF
:1004900090E0887F99278035910581F189EB90E084
:1004A000FC018081882F90E0887F9927883591050D
:1004B00029F185E091E00E94A30689EB90E0FC0120
:1004C0008081882F90E0292F2F938F9380E291E0F5
:1004D000892F8F9380E291E08F93CE0101969F93B5
:1004E0008F930E9402080F900F900F900F900F9023
:1004F0000F90CE0101960E94A30602C00E94BC018B
:100500000F900F900F900F900F900F90DF91CF9161
:10051000FF91EF91BF91AF919F918F917F916F91DB
:100520005F914F913F912F910F900FBE0F901F90B1
:100530001895CF93DF93CDB7DEB78CEB90E024E92D
:10054000FC0120830000DF91CF910895CF93DF93CA
:10055000CDB7DEB700008CEB90E0FC018081811507
:10056000D4F789EB90E0FC018081882F90E0887FB0
:1005700099278830910509F44CC089EB90E0FC0183
:100580008081882F90E0887F99278831910509F430
:1005900040C089EB90E0FC018081882F90E0887F4B
:1005A000992788329105A9F189EB90E0FC018081BF
:1005B000882F90E0887F99278031910551F189EB50
:1005C00090E0FC018081882F90E0887F992780341B
:1005D0009105F9F089EB90E0FC018081882F90E093
:1005E000887F992780359105A1F089EB90E0FC0187
:1005F0008081882F90E0887F99278835910549F080
:1006000085E291E00E94A30689EB90E0FC018081E5
:1006100001C080E0DF91CF910895CF93DF93CDB7F4
:10062000DEB78CEB90E024EAFC0120830E94A60256
:10063000DF91CF910895CF93DF93CDB7DEB788EBED
:1006400090E020E8FC01208329EB30E089EB90E08A
:10065000F9012081FC01208387E290E0FC012081E8
:1006600087E290E02F7CFC01208388E290E0FC018F
:10067000208188E290E02063FC01208378940000D0
:10068000DF91CF910895CF93DF9300D000D000D0B9
:100690000F92CDB7DEB78C837E836D834F830E942C
:1006A0000D038B838B81811511F08B813EC08BEB09
:1006B00090E02C81FC0120838CEB90E024E8FC018D
:1006C00020830E94A6028B838B81811511F08B8180
:1006D0002CC01A8219821EC089819A812D813E8187
:1006E000280F391F8BEB90E0F9012081FC0120835A
:1006F0008CEB90E024E8FC0120830E94A6028B830F
:100700008B81811511F08B8110C089819A810196AE
:100710009A8389838F81882F90E029813A812817D5
:100720003907D4F20E94990280E027960FB6F89418
:10073000DEBF0FBECDBFDF91CF910895CF93DF9382
:1007400000D000D000D00F92CDB7DEB78C837E836F
:100750006D834F830E940D038B838B81811511F074
:100760008B815CC08BEB90E02C81FC0120838CEBB7
:1007700090E024E8FC0120830E94A6028B838B81F9
:10078000811511F08B814AC01A8219823BC000008A
:100790008CEB90E0FC0180818115D4F72BEB30E0ED
:1007A00089819A814D815E81840F951FF901208195
:1007B000FC0120838F81882F90E0019729813A8165
:1007C000281739076CF48CEB90E024ECFC012083B3
:1007D0000E94A6028B838B81811579F08B811EC0CC
:1007E0008CEB90E024E8FC0120830E94A6028B831E
:1007F0008B81811511F08B8111C089819A810196BD
:100800009A8389838F81882F90E029813A812817E4
:1008100039070CF4BCCF0E94990280E027960FB6EE
:10082000F894DEBF0FBECDBFDF91CF910895CF9377
:10083000DF9300D000D000D00F92CDB7DEB78F830A
:100840008F818115F1F08F81882F90E0292F2F93D0
:100850008F9387E291E0892F8F9387E291E08F93C6
:10086000CE0101969F938F930E9402080F900F90E4
:100870000F900F900F900F90CE0101960E94A3064B
:1008800001C0000027960FB6F894DEBF0FBECDBFA3
:10089000DF91CF9108950F931F93CF93DF93CDB73F
:1008A000DEB7A2970FB6F894DEBF0FBECDBF8AA306
:1008B0001C821B821D828CEE8E8318861F821A86F4
:1008C0001986CE0182969C878B8781E08D871E8654
:1008D0000E811F81288539854A855B856C857D85DC
:1008E0008E850E9426018DEE8F87198A188A81E0F5
:1008F00090E09B8B8A8BCE0103969D8B8C8B83E043
:100900008E8B1F8A0F85188929893A894B895C89C2
:100910006D897E898F890E9426018C81882F90E0C5
:10092000382F22278D81882F90E0822B932B9A835A
:1009300089838A818F9389818F938CE291E0892FBB
:100940008F938CE291E08F93CE014896292F2F93BD
:100950008F930E9402080F900F900F900F900F90AE
:100960000F90CE0148960E94A3060000A2960FB6F3
:10097000F894DEBF0FBECDBFDF91CF911F910F91D5
:1009800008950F931F93CF93DF93CDB7DEB72B97C7
:100990000FB6F894DEBF0FBECDBF84EF95E29A8309
:1009A00089838CEE8B831D821C821F821E82CE0166
:1009B00001969987888782E08A871B860B811C8134
:1009C0002D813E814F81588569857A858B850E946E
:1009D000260100002B960FB6F894DEBF0FBECDBFE8
:1009E000DF91CF911F910F9108950F931F93CF9394
:1009F000DF93CDB7DEB7A7970FB6F894DEBF0FBE73
:100A0000CDBF0E941F060E94FE0080E090E0AAEF8A
:100A1000B3E489839A83AB83BC8320E030E04AE768
:100A200055E469817A818B819C810E946407DC0195
:100A3000CB018D839E83AF83B88720E030E040E810
:100A40005FE36D817E818F8198850E94DE0681152E
:100A50002CF481E090E09A87898740C020E03FEF46
:100A60004FE757E46D817E818F8198850E945F07F3
:100A7000813054F120E030E040E251E469817A8134
:100A80008B819C810E946407DC01CB01BC01CD01FC
:100A90000E94E306DC01CB019A87898710C080E9B8
:100AA00091E09C878B878B859C850197F1F79C87CC
:100AB0008B87000089859A8501979A878987898520
:100AC0009A85009761F715C06D817E818F81988529
:100AD0000E94E306DC01CB019A87898789859A8584
:100AE0009E878D878D859E850197F1F79E878D87DF
:100AF000000081E391E00E94A30685EF90E09E8FC5
:100B00008D8F8CEE8F8F19A218A21BA21AA2CE0174
:100B10004D969DA38CA382E08EA31FA20F8D18A1DA
:100B200029A13AA14BA15CA16DA17EA18FA10E9438
:100B300026010E94C10480E090E0AAE7B4E48F8718
:100B4000988BA98BBA8B20E030E04AE755E46F859B
:100B5000788989899A890E946407DC01CB018B8B93
:100B60009C8BAD8BBE8B20E030E040E85FE36B896F
:100B70007C898D899E890E94DE0681152CF481E096
:100B800090E0988F8F8B40C020E03FEF4FE757E415
:100B90006B897C898D899E890E945F07813054F121
:100BA00020E030E040E251E46F85788989899A89B4
:100BB0000E946407DC01CB01BC01CD010E94E30669
:100BC000DC01CB01988F8F8B10C080E991E09A8F68
:100BD000898F898D9A8D0197F1F79A8F898F0000FF
:100BE0008F89988D0197988F8F8B8F89988D00971B
:100BF00061F715C06B897C898D899E890E94E30607
:100C0000DC01CB01988F8F8B8F89988D9C8F8B8F78
:100C10008B8D9C8D0197F1F79C8F8B8F000085E366
:100C200091E00E94A30687EF0E944B0487E391E0C6
:100C30000E94A3068AEF0E944B0400007ACFCF9354
:100C4000DF93CDB7DEB785EC90E0FC01108284EC39
:100C500090E027E6FC01208381EC90E0FC0110820B
:100C600082EC90E026E0FC01208381EC90E0FC0126
:100C7000208181EC90E02864FC01208381EC90E0ED
:100C8000FC01208181EC90E02069FC0120837894B4
:100C90000000DF91CF910895CF93DF930F92CDB7EE
:100CA000DEB7898380914902882F90E088539E4F58
:100CB0002981FC012083809149028F5F8093490242
:100CC00080914902811514F41092490200000F909E
:100CD000DF91CF9108951F920F920FB60F921124BA
:100CE0002F938F939F93EF93FF93CF93DF93CDB782
:100CF000DEB790914802809149029817B9F080912F
:100D00004802882F90E088539E4FFC01208186EC9A
:100D100090E0FC012083809148028F5F809348021D
:100D200080914802811514F4109248020000DF916E
:100D3000CF91FF91EF919F918F912F910F900FBEC7
:100D40000F901F9018950F931F93CF93DF9300D0B0
:100D50000F92CDB7DEB79B838A8319820EC089813B
:100D6000882F90E02A813B81820F931FFC018081B4
:100D70000E944C0689818F5F89838981082F10E04A
:100D80008A819B810E94F9070817190740F380ECBC
:100D900090E0FC018081882F90E080729927009775
:100DA00021F086EC90E0FC01108200000F900F9083
:100DB0000F90DF91CF911F910F9108950E9412071C
:100DC00008F481E008950E943E0788F09F5798F04C
:100DD000B92F9927B751B0F0E1F0660F771F881F40
:100DE000991F1AF0BA95C9F714C0B13091F00E945A
:100DF0005807B1E008950C945807672F782F88277B
:100E0000B85F39F0B93FCCF3869577956795B39580
:100E1000D9F73EF490958095709561957F4F8F4FEF
:100E20009F4F0895990F0008550FAA0BE0E8FEEFB9
:100E300016161706E807F907C0F012161306E4079E
:100E4000F50798F0621B730B840B950B39F40A2697
:100E500061F0232B242B252B21F408950A2609F475
:100E6000A140A6958FEF811D811D089557FD9058D3
:100E7000440F551F59F05F3F71F04795880F97FB5E
:100E8000991F61F09F3F79F0879508951216130618
:100E90001406551FF2CF4695F1DF08C01616170647
:100EA0001806991FF1CF869571056105089408957C
:100EB000E894BB2766277727CB0197F908950E940E
:100EC000120708F48FEF08950E9477070C94E80743
:100ED0000E94DA0738F00E94E10720F0952311F014
:100EE0000C94D1070C94D70711240C9459070E9435
:100EF000360770F3959FC1F3950F50E0551F629F21
:100F0000F001729FBB27F00DB11D639FAA27F00D62
:100F1000B11DAA1F649F6627B00DA11D661F829F89
:100F20002227B00DA11D621F739FB00DA11D621F6E
:100F3000839FA00D611D221F749F3327A00D611D8B
:100F4000231F849F600D211D822F762F6A2F11246D
:100F50009F5750409AF0F1F088234AF0EE0FFF1FA0
:100F6000BB1F661F771F881F91505040A9F79E3FF7
:100F7000510580F00C94D1070C9459075F3FE4F3BE
:100F8000983ED4F3869577956795B795F795E7954D
:100F90009F5FC1F7FE2B880F911D9695879597F956
:100FA000089597F99F6780E870E060E008959FEFEB
:100FB00080EC089500240A941616170618060906F0
:100FC000089500240A9412161306140605060895BF
:100FD000092E0394000C11F4882352F0BB0F40F447
:100FE000BF2B11F460FF04C06F5F7F4F8F4F9F4F87
:100FF0000895FC0101900020E9F7809590958E0FEF
:101000009F1F0895AEE0B0E0E8E0F8E00C94C30A5A
:101010000D891E8986E08C831A8309838FEF9FE7F1
:101020009E838D83AE01475E5F4F6F89788DCE01C1
:1010300001960E9425082F813885020F131FF801A1
:1010400010822E96E4E00C94DF0AABE0B0E0EBE215
:10105000F8E00C94B60A6C017B018A01FC0117824E
:101060001682838181FFDAC19AE0492EF60123813D
:10107000F70123FD859123FF81917F01811509F4FB
:101080001FC1853239F423FD959123FF91917F0192
:10109000953229F4B60190E00E94270AE7CF30E0AC
:1010A000612C512C712CF0E27F1640F59B32D9F067
:1010B00058F49032D1F09332F1F09E3299F576FCEB
:1010C000FFC0689476F806C09D3291F09033C1F469
:1010D000689470F8F70123FD959123FF91917F01AA
:1010E0009111E1CF29C0689471F8689472F8F2CF39
:1010F000689473F8EFCF689474F8ECCF77FC1CC059
:1011000080ED890F8A30C8F676FE05C0649C800D9C
:101110001124682EDFCF549C800D1124582E689422
:1011200075F8D8CF9C3619F4689477F8D3CF9C34EF
:1011300009F44BC0983671F2892F8F7D8554833026
:1011400008F445C0933609F466C0933709F469C0C2
:10115000933509F475C0943619F0993609F09FC09B
:10116000F80177FE95C061917191819191918F0104
:10117000272D2F76722E97FF09C090958095709538
:1011800061957F4F8F4F9F4F689477F82AE030E04A
:10119000AE014F5F5F4F5A010E94570A8A19A82E6D
:1011A00076FEC5C0872D8E7FA61408F0BFC074FEE2
:1011B00012C172FC06C1F72DFE7E7F2EB62C872D44
:1011C0008678811509F4C0C001C131E083CF3115A3
:1011D000F9F0085F1F4F8FE3898388248394912C53
:1011E000AE014F5F5F4F5A01E89477F873FC03C07C
:1011F00085149104B0F181149104D1F5511409F4CE
:1012000035CFB60180E290E00E94270A5A94F6CFCB
:101210000C5F1F4FE0CFF801808189830E5F1F4F65
:10122000DCCFF801A190B1908F01662D70E076FCC3
:1012300002C06FEF7FEFC5010E941C0A4C01D4CFA2
:10124000F801A190B1908F01662D70E076FC02C08C
:101250006FEF7FEFC5010E94110A4C01689477F887
:10126000C5CFB60180E290E00E94270A5A94C0CF11
:10127000F50177FC859177FE81915F01B60190E0E1
:101280000E94270A51105A94F1E08F1A9108B3CFA7
:1012900061917191072E000C880B990B68CF372C48
:1012A000E89434F82AE030E0953739F1572D597F2A
:1012B000352E903799F058F49835A9F09F36D9F02B
:1012C000F601868197812B96E1E10C94D20A98373A
:1012D000B9F774FC05C020E130E00FC0689434F821
:1012E000689432F8F8CF74FE03C0872D8660382EDC
:1012F00020E132E002C028E030E0F80137FE11C002
:1013000061917191819191918F01FE0131965F01FF
:10131000AF010E94570A8A19A82E732CE89477F817
:101320003FCF6191719180E090E0EECF782EBA2CA2
:1013300074FE45CFFE01EA0DF11D8081803309F076
:1013400043C0272D297E722E73FC0EC070FE4FC045
:101350006A2CB51418F4650C6B18B52C852D8B19F7
:101360005B1408F480E0B80EB51408F042C05B18B6
:1013700074FE41C0B60180E390E00E94270A72FE2D
:1013800009C088E590E071FC02C088E790E0B601F2
:101390000E94270AA614D8F1AA94B12C4FEFA41AE0
:1013A000B40ACE0101963C01A80EB91EF501829146
:1013B0005F01B60190E00E94270A6A147B04B1F72E
:1013C0001DCFB62C782EB6CF72FC02C0B394BCCF22
:1013D000B394B394B9CFB62C782EF1CEB60180E297
:1013E00090E00E94270A33943514C0F3B7CF3B2C0A
:1013F000FBCF512CBDCF872D8678811559F280E225
:1014000071FC8BE277FC8DE2B60190E0C1CFB601B2
:1014100080E390E00E94270A6A94BCCF8FEF9FEF91
:1014200052CFFC010590615070400110D8F78095B3
:1014300090958E0F9F1F0895FC01615070400190A0
:101440000110D8F7809590958E0F9F1F08950F93E8
:101450001F93CF93DF93182F092FEB018B8181FD11
:1014600009C01FEF0FEF812F902FDF91CF911F91B8
:101470000F91089582FF14C02E813F818C819D8140
:10148000281739073CF4E881F981CF010196998347
:10149000888310838E819F8101969F838E83E3CF03
:1014A000E885F985812F0995892BA1F3DACFFA0117
:1014B000AA27283051F1203181F1E8946F936E7F93
:1014C0006E5F7F4F8F4F9F4FAF4FB1E03ED0B4E084
:1014D0003CD0670F781F891F9A1FA11D680F791FC5
:1014E0008A1F911DA11D6A0F711D811D911DA11DD6
:1014F00020D009F468943F912AE0269F11243019E6
:10150000305D3193DEF6CF010895462F4770405D80
:101510004193B3E00FD0C9F7F6CF462F4F70405D2F
:101520004A3318F0495D31FD4052419302D0A9F78A
:10153000EACFB4E0A6959795879577956795BA9584
:10154000C9F700976105710508959B01AC010A2E4A
:1015500006945795479537952795BA95C9F7620F21
:10156000731F841F951FA01D08952F923F924F92C5
:101570005F926F927F928F929F92AF92BF92CF9223
:10158000DF92EF92FF920F931F93CF93DF93CDB72C
:10159000DEB7CA1BDB0B0FB6F894DEBF0FBECDBFA4
:1015A00009942A88398848885F846E847D848C8475
:1015B0009B84AA84B984C884DF80EE80FD800C817E
:1015C0001B81AA81B981CE0FD11D0FB6F894DEBF61
:0C15D0000FBECDBFED010895F894FFCFD1
:1015DC0025690A0D004554574332205472616E73CD
:1015EC006D697373696F6E204661696C6564200068
:1015FC0025690A0D00450025690A0D0025750A0D9F
:0A160C0000420A0D005000540000D7
:00000001FF
