:100000000C9434000C9451000C9451000C94510049
:100010000C9451000C9451000C9451000C9451001C
:100020000C9451000C9451000C9451000C9451000C
:100030000C9451000C9451000C9451000C945100FC
:100040000C9451000C9451000C9451000C945100EC
:100050000C940A040C94AD000C9451000C945100C3
:100060000C9451000C94510011241FBECFEFD8E026
:10007000DEBFCDBF11E0A0E0B1E0E8EFF0E102C0EB
:1000800005900D92AE34B107D9F722E0AEE4B1E0AD
:1000900001C01D92A435B207E1F70E9415030C942C
:1000A0007A080C940000CF93DF93CDB7DEB78CE7CE
:1000B00090E020E4FC0120838AE790E02FE8FC0137
:1000C000208378940000DF91CF910895CF93DF9340
:1000D00000D0CDB7DEB79A8389838CE790E0FC012E
:1000E00020818CE790E02F60FC0120838CE790E07A
:1000F000FC0130818CE790E02FE02327FC01208376
:100100008CE790E0FC018081982F8981292F282B92
:100110008CE790E0FC0120838EE790E0FC01808179
:10012000282F81E090E0098002C0880F991F0A946F
:10013000E2F7282B8EE790E0FC0120838AE790E02D
:10014000FC0120818AE790E02064FC01208300000C
:100150000F900F90DF91CF9108951F920F920FB6DD
:100160000F9211242F933F934F935F936F937F933D
:100170008F939F93AF93BF93EF93FF93CF93DF93AF
:10018000CDB7DEB72C97DEBFCDBF88E790E0FC018E
:1001900080819181292F2F938F9380E091E0892F87
:1001A0008F9380E091E08F93CE0101969F938F9380
:1001B0000E94A1050F900F900F900F900F900F903D
:1001C000CE0101960E94420400002C960FB6F894CE
:1001D000DEBF0FBECDBFDF91CF91FF91EF91BF91F9
:1001E000AF919F918F917F916F915F914F913F91CF
:1001F0002F910F900FBE0F901F901895CF93DF9304
:10020000CDB7DEB78CEB90E024E9FC012083000041
:10021000DF91CF910895CF93DF93CDB7DEB761978C
:100220000FB6F894DEBF0FBECDBF95C08CEB90E04B
:10023000FC018081882F90E0292F2F938F9385E0F8
:1002400091E0892F8F9385E091E08F93CE010F96F7
:10025000292F2F938F930E94A1050F900F900F903D
:100260000F900F900F90CE010F960E94420480E0F5
:1002700090E0AAE7B4E489839A83AB83BC8320E04F
:1002800030E04AE755E469817A818B819C810E9444
:100290000305DC01CB018D839E83AF83B88720E00B
:1002A00030E040E85FE36D817E818F8198850E9418
:1002B0007D0481152CF481E090E09A87898740C005
:1002C00020E03FEF4FE757E46D817E818F81988575
:1002D0000E94FE04813054F120E030E040E251E41D
:1002E00069817A818B819C810E940305DC01CB01AD
:1002F000BC01CD010E948204DC01CB019A87898771
:1003000010C080E991E09C878B878B859C85019745
:10031000F1F79C878B87000089859A8501979A87DA
:10032000898789859A85009761F715C06D817E81DF
:100330008F8198850E948204DC01CB019A8789878E
:1003400089859A859E878D878D859E850197F1F792
:100350009E878D8700008CEB90E0FC0180818115E9
:100360000CF064CF89EB90E0FC018081882F90E055
:10037000887F99278830910539F00E94FE0089EB2B
:1003800090E0FC01808101C080E061960FB6F89496
:10039000DEBF0FBECDBFDF91CF910895CF93DF9326
:1003A000CDB7DEB78CEB90E024EAFC0120830E94FD
:1003B0000B010000DF91CF910895CF93DF93CDB76C
:1003C000DEB788EB90E021E0FC0120830000DF91A4
:1003D000CF910895CF93DF9300D000D000D00F923B
:1003E000CDB7DEB78C837E836D834F838AE091E047
:1003F0000E9442040E94CE0181E191E00E944204E9
:100400000E940B018B838B81811511F08B813EC083
:100410008BEB90E02C81FC0120838CEB90E024E8B6
:10042000FC0120830E940B018B838B81811511F0CD
:100430008B812CC01A8219821EC089819A812D81DC
:100440003E81280F391F8BEB90E0F9012081FC01E0
:1004500020838CEB90E024E8FC0120830E940B01B8
:100460008B838B81811511F08B8110C089819A81DA
:1004700001969A8389838F81882F90E029813A8120
:1004800028173907D4F20E94FE0080E027960FB6A5
:10049000F894DEBF0FBECDBFDF91CF910895CF930B
:1004A000DF9300D000D000D00F92CDB7DEB78C83A1
:1004B0007E836D834F830E94CE010E940B018B834C
:1004C0008B81811511F08B815CC08BEB90E02C81CE
:1004D000FC0120838CEB90E024E8FC0120830E9447
:1004E0000B018B838B81811511F08B814AC01A829D
:1004F00019823BC000008CEB90E0FC0180818115EB
:10050000D4F72BEB30E089819A814D815E81840F95
:10051000951FF9012081FC0120838F81882F90E0B5
:10052000019729813A81281739076CF48CEB90E008
:1005300024ECFC0120830E940B018B838B818115AD
:1005400079F08B811EC08CEB90E024E8FC012083C5
:100550000E940B018B838B81811511F08B8111C05F
:1005600089819A8101969A8389838F81882F90E06F
:1005700029813A81281739070CF4BCCF0E94FE006C
:1005800080E027960FB6F894DEBF0FBECDBFDF9197
:10059000CF910895CF93DF9300D000D0CDB7DEB7D1
:1005A00084EF95E29C838B83CE01039642E0BC01ED
:1005B0008CEE0E94EA0189831A82CE0101960E9484
:1005C000420400000F900F900F900F90DF91CF9199
:1005D0000895CF93DF9300D000D000D0CDB7DEB721
:1005E0008E83CE01069641E0BC018CEE0E94EA01AA
:1005F00089831A82CE0101960E944204CE0103969D
:1006000042E0BC018EEE0E94EA0189831A82CE018B
:1006100001960E94420400000F900F900F900F90DF
:100620000F900F90DF91CF910895CF93DF93CDB7C7
:10063000DEB762970FB6F894DEBF0FBECDBF0E9443
:10064000DD010E94BE0388E291E00E94420485EF32
:1006500090E09A8B898BCE01419642E0BC018CEEF2
:100660000E94EA018F87188ACE010F960E944204E9
:100670000E94CA0280E090E0AAE7B4E489839A83EA
:10068000AB83BC8320E030E04AE755E469817A819E
:100690008B819C810E940305DC01CB018D839E83AD
:1006A000AF83B88720E030E040E85FE36D817E8172
:1006B0008F8198850E947D0481152CF481E090E063
:1006C0009A87898740C020E03FEF4FE757E46D816C
:1006D0007E818F8198850E94FE04813054F120E054
:1006E00030E040E251E469817A818B819C810E94F3
:1006F0000305DC01CB01BC01CD010E948204DC01B9
:10070000CB019A87898710C080E991E09C878B870D
:100710008B859C850197F1F79C878B8700008985E5
:100720009A8501979A87898789859A85009761F7C5
:1007300015C06D817E818F8198850E948204DC01C5
:10074000CB019A87898789859A859E878D878D8534
:100750009E850197F1F79E878D87000080E391E0E9
:100760000E94420487EF0E94E9028DE391E00E941B
:1007700042048AEF0E94E90200007ACFCF93DF9310
:10078000CDB7DEB785EC90E0FC01108284EC90E000
:1007900027E6FC01208381EC90E0FC01108282ECD2
:1007A00090E026E0FC01208381EC90E0FC012081B8
:1007B00081EC90E02864FC01208381EC90E0FC0156
:1007C000208181EC90E02069FC0120837894000076
:1007D000DF91CF910895CF93DF930F92CDB7DEB71E
:1007E000898380915302882F90E08E529E4F2981F9
:1007F000FC012083809153028F5F8093530280918C
:100800005302811514F41092530200000F90DF91EF
:10081000CF9108951F920F920FB60F9211242F932C
:100820008F939F93EF93FF93CF93DF93CDB7DEB773
:1008300090915202809153029817B9F08091520220
:10084000882F90E08E529E4FFC01208186EC90E034
:10085000FC012083809152028F5F8093520280912D
:100860005202811514F4109252020000DF91CF91D0
:10087000FF91EF919F918F912F910F900FBE0F904D
:100880001F9018950F931F93CF93DF9300D00F9273
:10089000CDB7DEB79B838A8319820EC08981882FEA
:1008A00090E02A813B81820F931FFC0180810E948E
:1008B000EB0389818F5F89838981082F10E08A810A
:1008C0009B810E9498050817190740F380EC90E07F
:1008D000FC018081882F90E080729927009721F099
:1008E00086EC90E0FC01108200000F900F900F90BA
:1008F000DF91CF911F910F9108950E94B10408F4E8
:1009000081E008950E94DD0488F09F5798F0B92F88
:100910009927B751B0F0E1F0660F771F881F991F34
:100920001AF0BA95C9F714C0B13091F00E94F704DB
:10093000B1E008950C94F704672F782F8827B85FEB
:1009400039F0B93FCCF3869577956795B395D9F78C
:100950003EF490958095709561957F4F8F4F9F4F96
:100960000895990F0008550FAA0BE0E8FEEF161640
:100970001706E807F907C0F012161306E407F50793
:1009800098F0621B730B840B950B39F40A2661F007
:10099000232B242B252B21F408950A2609F4A140AA
:1009A000A6958FEF811D811D089557FD9058440F26
:1009B000551F59F05F3F71F04795880F97FB991FBE
:1009C00061F09F3F79F0879508951216130614067B
:1009D000551FF2CF4695F1DF08C016161706180608
:1009E000991FF1CF86957105610508940895E894E3
:1009F000BB2766277727CB0197F908950E94B1049A
:100A000008F48FEF08950E9416050C9487050E9444
:100A1000790538F00E94800520F0952311F00C94A0
:100A200070050C94760511240C94F8040E94D504EA
:100A300070F3959FC1F3950F50E0551F629FF00131
:100A4000729FBB27F00DB11D639FAA27F00DB11D4A
:100A5000AA1F649F6627B00DA11D661F829F2227D3
:100A6000B00DA11D621F739FB00DA11D621F839F5A
:100A7000A00D611D221F749F3327A00D611D231F30
:100A8000849F600D211D822F762F6A2F11249F577E
:100A900050409AF0F1F088234AF0EE0FFF1FBB1F81
:100AA000661F771F881F91505040A9F79E3F510540
:100AB00080F00C9470050C94F8045F3FE4F3983ECA
:100AC000D4F3869577956795B795F795E7959F5FEA
:100AD000C1F7FE2B880F911D9695879597F908957C
:100AE00097F99F6780E870E060E008959FEF80ECE1
:100AF000089500240A941616170618060906089584
:100B000000240A9412161306140605060895092EE9
:100B10000394000C11F4882352F0BB0F40F4BF2B58
:100B200011F460FF04C06F5F7F4F8F4F9F4F089598
:100B3000FC0101900020E9F7809590958E0F9F1F92
:100B40000895AEE0B0E0E7EAF5E00C9451080D89B5
:100B50001E8986E08C831A8309838FEF9FE79E832B
:100B60008D83AE01475E5F4F6F89788DCE01019610
:100B70000E94C4052F813885020F131FF8011082CF
:100B80002E96E4E00C946D08ABE0B0E0EAECF5E002
:100B90000C9446086C017B018A01FC0117821682C5
:100BA000838181FFC9C19AE0592EF6012381F701A3
:100BB00023FD859123FF81917F01811509F459C19E
:100BC000853239F423FD959123FF91917F01953270
:100BD00029F4B60190E00E94B507E7CF912C612C73
:100BE000712CF0E27F1640F59B32D9F058F4903228
:100BF000D1F09332F1F09E3299F576FC3AC16894C7
:100C000076F806C09D3291F09033C1F4689470F884
:100C1000F70123FD959123FF91917F019111E1CF80
:100C200026C0689471F8689472F8F2CF689473F8EB
:100C3000EFCF689474F8ECCF77FC19C080ED890F82
:100C40008A30C8F676FE05C0959C800D1124982E3A
:100C5000DFCF659C800D1124682E689475F8D8CF7D
:100C60009C3619F4689477F8D3CF983689F2892F97
:100C70008F7D8554833008F488C0933609F4A4C06E
:100C8000933709F4A7C0933509F4B3C0943619F02B
:100C9000993609F0DDC0F80177FED3C061917191FA
:100CA000819191918F01272D2F76822E97FF09C078
:100CB00090958095709561957F4F8F4F9F4F689469
:100CC00087F82AE030E0AE014F5F5F4F5A010E9483
:100CD000E5078A19A82EBA2C782C86FE0CC0E89459
:100CE00070F8A91440F484FE05C082FC03C0F82DFE
:100CF000FE7E7F2EB92C74FEF8C0FE01EA0DF11DB8
:100D00008081803309F0EAC0272D297E722E73FC82
:100D10000EC070FEF9C09A2CB61418F4960C9B18ED
:100D2000B62C862D8B196B1408F480E0B80EB6141F
:100D300008F0ECC06B1874FEEBC0B60180E390E0E5
:100D40000E94B50772FE09C088E590E071FC02C000
:100D500088E790E0B6010E94B507A91408F4E5C041
:100D6000AA94B12C4FEFA41AB40ACE0101964C01FB
:100D7000A80EB91EF50182915F01B60190E00E94B4
:100D8000B5078A149B04B1F715C00C5F1F4F8FE3A2
:100D9000898388248394912CAE014F5F5F4F5A0161
:100DA000E89477F873FC03C08614910498F18114D9
:100DB0009104B9F5611409F4F8CEB60180E290E02F
:100DC0000E94B5076A94F6CFF801808189830E5F8F
:100DD0001F4FDFCFF801A190B1908F01692D70E016
:100DE00076FC02C06FEF7FEFC5010E94AA074C019D
:100DF000D7CFF801A190B1908F01692D70E076FCFA
:100E000002C06FEF7FEFC5010E949F074C016894FD
:100E100077F8C8CFB60180E290E00E94B5076A94E7
:100E2000C3CFF50177FC859177FE81915F01B60113
:100E300090E00E94B50761106A94F1E08F1A910862
:100E4000B6CF61917191072E000C880B990B2ACFB8
:100E5000872CE89484F82AE030E0953739F1572D53
:100E6000597F852E9037A9F058F49835A9F09F3610
:100E7000D9F0F601868197812B96EFE00C946208F9
:100E80009837B9F784FE02C0689482F820E130E018
:100E90000DC0689484F8F6CF74FE03C0852F866079
:100EA000882E20E132E002C028E030E0F80187FE21
:100EB00010C061917191819191918F01FE013196E4
:100EC0005F01AF010E94E5078A19A82EE89487F810
:100ED00002CF6191719180E090E0EFCF72FC02C08F
:100EE000B39415CFB394B39412CF872D8678811520
:100EF00009F40DCFF5CFB60180E290E00E94B5076E
:100F000083948614C0F30DCF8B2CFBCF612C13CFB1
:100F1000872D8678811509F420CF80E271FC8BE261
:100F200077FC8DE2B60190E016CFB60180E390E049
:100F30000E94B5079A9411CF8FEF9FEF9DCFFC01D0
:100F40000590615070400110D8F7809590958E0FF4
:100F50009F1F0895FC016150704001900110D8F767
:100F6000809590958E0F9F1F08950F931F93CF9399
:100F7000DF93182F092FEB018B8181FD09C01FEF33
:100F80000FEF812F902FDF91CF911F910F91089537
:100F900082FF14C02E813F818C819D8128173907E3
:100FA0003CF4E881F981CF0101969983888310830D
:100FB0008E819F8101969F838E83E3CFE885F9859B
:100FC000812F0995892BA1F3DACFFA01AA272830BE
:100FD00051F1203181F1E8946F936E7F6E5F7F4F06
:100FE0008F4F9F4FAF4FB1E03ED0B4E03CD0670F82
:100FF000781F891F9A1FA11D680F791F8A1F911DD5
:10100000A11D6A0F711D811D911DA11D20D009F424
:1010100068943F912AE0269F11243019305D319366
:10102000DEF6CF010895462F4770405D4193B3E04F
:101030000FD0C9F7F6CF462F4F70405D4A3318F0F6
:10104000495D31FD4052419302D0A9F7EACFB4E0A7
:10105000A6959795879577956795BA95C9F700975F
:101060006105710508959B01AC010A2E0694579500
:10107000479537952795BA95C9F7620F731F841F57
:10108000951FA01D08952F923F924F925F926F92ED
:101090007F928F929F92AF92BF92CF92DF92EF9208
:1010A000FF920F931F93CF93DF93CDB7DEB7CA1B89
:1010B000DB0B0FB6F894DEBF0FBECDBF09942A88B4
:1010C000398848885F846E847D848C849B84AA845C
:1010D000B984C884DF80EE80FD800C811B81AA81E9
:1010E000B981CE0FD11D0FB6F894DEBF0FBECDBFB4
:0810F000ED010895F894FFCF13
:1010F80025690A0D0025690A0D00746573740A0DC7
:10110800007472616E736D697373696F6E207374A6
:1011180061727465640A0D00426567696E0A0D00A4
:1011280050726573737572653A0A0A0D0054656DDD
:0E11380070657261747572653A0A0A0D0000E6
:00000001FF
