:100000000C9434000C9451000C9451000C94510049
:100010000C9451000C9451000C9451000C9451001C
:100020000C9451000C9451000C9451000C9451000C
:100030000C9451000C9451000C9451000C945100FC
:100040000C9451000C9451000C9451000C945100EC
:100050000C9474010C9449020C9451000C945100BE
:100060000C9451000C94510011241FBECFEFD8E026
:10007000DEBFCDBF11E0A0E0B1E0E2E7FFE002C0EB
:1000800005900D92AC30B107D9F721E0ACE0B1E0BA
:1000900001C01D92A531B207E1F70E9480000C94C7
:1000A000B7070C940000CF93DF9300D00F92CDB729
:1000B000DEB78B8385E090E00E94B5039A83898345
:1000C0008B81882F90E00E94B5039C0189819A81E1
:1000D000FC013183208389819A812B81FC01228359
:1000E00089819A81FC01138289819A81FC011482A1
:1000F00089819A810F900F900F90DF91CF91089591
:10010000CF93DF93CDB7DEB7A2970FB6F894DEBFDB
:100110000FBECDBF0E9423010E94EF0180E090E05E
:10012000AAEFB3E489839A83AB83BC8320E030E0F9
:100130004AE755E469817A818B819C810E94200382
:100140006B8B7C8B8D8B9E8B8B899C89AD89BE89BB
:100150008D839E83AF83B88720E030E040E85FE383
:100160006D817E818F8198850E949A0288232CF46C
:1001700081E090E09A87898755C020E03FEF4FE704
:1001800057E46D817E818F8198850E941B038823AF
:10019000D9F1D4F120E030E040E251E469817A8184
:1001A0008B819C810E9420036F8B788F898F9A8F1F
:1001B0008F89988DA98DBA8D8F87988BA98BBA8BD3
:1001C0006F85788989899A890E949F026B8F7C8FBD
:1001D0008D8F9E8FAB8DBC8DBA87A98710C080E9AB
:1001E00091E09C878B878B859C850197F1F79C8795
:1001F0008B87000089859A8501979A8789878985E9
:100200009A85009761F719C06D817E818F819885ED
:100210000E949F026F8F78A389A39AA38F8D98A1C4
:100220009A87898789859A859E878D878D859E8502
:100230000197F1F79E878D87000080E090E00E9493
:10024000020200006BCFCF93DF9300D0CDB7DEB7B3
:100250009A83898385EC90E0FC01108284EC90E025
:1002600027E6FC01208381EC90E028E4FC01208358
:1002700082EC90E026E0FC012083789480E10E94EB
:10028000530025E0FC01ACE0B1E001900D922A950D
:10029000E1F700000F900F90DF91CF910895CF9379
:1002A000DF930F92CDB7DEB7898320910C01309197
:1002B0000D0180911001882F90E0820F931F2981FA
:1002C000FC012083809110018F5F80931001909139
:1002D000100180910E01981710F01092100100008B
:1002E0000F90DF91CF9108951F920F920FB60F924A
:1002F00011242F933F938F939F93EF93FF93CF936B
:10030000DF93CDB7DEB790910F0180911001981760
:10031000E9F020910C0130910D0180910F01882F9F
:1003200090E0820F931FFC01208186EC90E0FC019D
:10033000208380910F018F5F80930F0190910F01B7
:1003400080910E01981710F010920F010000DF91BC
:10035000CF91FF91EF919F918F913F912F910F90AE
:100360000FBE0F901F9018950F931F93CF93DF939D
:1003700000D00F92CDB7DEB79B838A8319820EC05F
:100380008981882F90E02A813B81820F931FFC0195
:1003900080810E944F0189818F5F89838981082F25
:1003A00010E08A819B810E94DD040817190740F341
:1003B00080EC90E0FC018081882F90E0807299278A
:1003C000009721F086EC90E0FC01108200000F9075
:1003D0000F900F90DF91CF911F910F910895CF93C0
:1003E000DF93CDB7DEB78CE790E020E4FC012083FB
:1003F0008AE790E02FE8FC01208378940000DF91E9
:10040000CF910895CF93DF9300D0CDB7DEB79A8315
:1004100089838CE790E0FC0120818CE790E02F60DD
:10042000FC0120838CE790E0FC0130818CE790E0B8
:100430002FE02327FC0120838CE790E0FC018081E2
:10044000982F8981292F282B8CE790E0FC012083AD
:100450008EE790E0FC018081282F81E090E0098008
:1004600002C0880F991F0A94E2F7282B8EE790E0CC
:10047000FC0120838AE790E0FC0120818AE790E07C
:100480002064FC01208300000F900F90DF91CF913A
:1004900008951F920F920FB60F9211242F933F933E
:1004A0004F935F936F937F938F939F93AF93BF937C
:1004B000EF93FF93CF93DF93CDB7DEB76497DEBFA3
:1004C000CDBF88E790E0FC0180819181292F2F9397
:1004D0008F9386E091E0892F8F9386E091E08F9350
:1004E000CE0101969F938F930E94E6040F900F9088
:1004F0000F900F900F900F90CE0101960E94B401C3
:10050000000064960FB6F894DEBF0FBECDBFDF913A
:10051000CF91FF91EF91BF91AF919F918F917F917B
:100520006F915F914F913F912F910F900FBE0F9060
:100530001F9018950E94CE0208F481E008950E9451
:10054000FA0288F09F5798F0B92F9927B751B0F069
:10055000E1F0660F771F881F991F1AF0BA95C9F747
:1005600014C0B13091F00E941403B1E008950C94CE
:100570001403672F782F8827B85F39F0B93FCCF381
:10058000869577956795B395D9F73EF490958095C4
:10059000709561957F4F8F4F9F4F0895990F000879
:1005A000550FAA0BE0E8FEEF16161706E807F90745
:1005B000C0F012161306E407F50798F0621B730BE0
:1005C000840B950B39F40A2661F0232B242B252B61
:1005D00021F408950A2609F4A140A6958FEF811D04
:1005E000811D089557FD9058440F551F59F05F3FE6
:1005F00071F04795880F97FB991F61F09F3F79F045
:1006000087950895121613061406551FF2CF4695C6
:10061000F1DF08C0161617061806991FF1CF869548
:100620007105610508940895E894BB27662777272C
:10063000CB0197F908950E94CE0208F48FEF089538
:100640000E9433030C94A4030E94960338F00E9486
:100650009D0320F0952311F00C948D030C949303CB
:1006600011240C9415030E94F20270F3959FC1F3BC
:10067000950F50E0551F629FF001729FBB27F00D50
:10068000B11D639FAA27F00DB11DAA1F649F6627A5
:10069000B00DA11D661F829F2227B00DA11D621FF4
:1006A000739FB00DA11D621F839FA00D611D221FAE
:1006B000749F3327A00D611D231F849F600D211D92
:1006C000822F762F6A2F11249F5750409AF0F1F015
:1006D00088234AF0EE0FFF1FBB1F661F771F881F7E
:1006E00091505040A9F79E3F510580F00C948D0326
:1006F0000C9415035F3FE4F3983ED4F38695779509
:100700006795B795F795E7959F5FC1F7FE2B880F23
:10071000911D9695879597F9089597F99F6780E8B9
:1007200070E060E008959FEF80EC089500240A9443
:100730001616170618060906089500240A941216BC
:100740001306140605060895092E0394000C11F4EF
:10075000882352F0BB0F40F4BF2B11F460FF04C09C
:100760006F5F7F4F8F4F9F4F08950F931F93CF93CE
:10077000DF939C01029710F422E030E0E091110138
:10078000F091120190E080E0B0E0A0E0309791F4A9
:10079000009709F445C0821B930B84309105B8F58E
:1007A0008A819B816115710569F1FB0193838283C5
:1007B000FE0111C04081518102811381421753070C
:1007C000F0F04217530799F4109761F012960C93CA
:1007D000129713961C933296CF01DF91CF911F9100
:1007E0000F9108950093110110931201F4CF009717
:1007F00019F04817590718F4CA01BD01EF01DF01CC
:10080000F801C4CF9093120180931101D1CFFE0162
:10081000E80FF91F21933193029799838883DCCFE6
:100820008091130190911401892B41F48091020170
:100830009091030190931401809313018091000122
:1008400090910101009741F48DB79EB7409104014A
:1008500050910501841B950B409113015091140197
:100860004817590708F0B8CF841B950B82179307D8
:1008700008F4B2CFB9016E5F7F4F8617970708F46F
:10088000ABCF640F751F7093140160931301FA01CD
:1008900021933193A1CFCF93DF939C010097E9F08F
:1008A000FC01329713821282C0911101D091120182
:1008B000DE0190E080E02097A1F480819181280FF3
:1008C000391F80911301909114018217930709F049
:1008D00067C0F0931401E0931301DF91CF91089565
:1008E000DA01AE17BF0708F041C012964D915C9136
:1008F0001397CD014115510599F7DC011396FC932F
:10090000EE9312974D915D91A40FB51FEA17FB0767
:1009100081F4208131812E5F3F4F240F351FDC0190
:1009200011963C932E932281338113963C932E9300
:100930001297B0E0A0E08A819B810097B1F5FE019B
:1009400081919191E80FF91F809113019091140109
:100950008E179F0711F6109759F5109212011092F9
:100960001101D0931401C0931301B7CFB383A283B5
:1009700040815181240F351FA217B30771F44E5FD8
:100980005F4F2D913C911197240F351F31832083A8
:1009900012962D913C9133832283009709F0ADCFBD
:1009A000F0931201E093110198CFDE01EC01C3CF67
:1009B00013961C921E921297D4CFFC010190002036
:1009C000E9F7809590958E0F9F1F0895AEE0B0E0F7
:1009D000ECEEF4E00C948E070D891E8986E08C8382
:1009E0001A8309838FEF9FE79E838D83AE01475E55
:1009F0005F4F6F89788DCE0101960E9409052F8186
:100A00003885020F131FF80110822E96E4E00C9433
:100A1000AA07AFE0B0E0EFE0F5E00C9480077C01BE
:100A20003B018A01DC0117961C921E9216971396C1
:100A30008C9181FFBEC19AE0292EFE0131964F01B3
:100A4000D70113969C91F30193FD859193FF8191BA
:100A50003F01882309F444C1853239F493FD85911F
:100A600093FF81913F01853229F4B70190E00E9404
:100A7000F206E6CFB12C412C512CBFE1B51538F070
:100A80008B3209F188F4803201F1833221F157FC75
:100A90003AC020ED280F2A3040F556FE1FC0B29C08
:100AA000200D1124B22E06C08D3291F0803379F7DB
:100AB000689450F8F30193FD859193FF81913F0174
:100AC0008111DBCF20C0689451F8689452F8F2CFBE
:100AD000689453F8EFCF689454F8ECCF429C200D03
:100AE0001124422E689455F8E5CF8E3229F456FC35
:100AF000F7C0689456F8DECF8C3619F4689457F82E
:100B0000D9CF8836B9F2982F9F7D95549330C0F095
:100B1000833681F18337A1F1833509F05BC0D801B9
:100B2000CD90DD908D016B2D70E056FC02C06FEF13
:100B30007FEFC6010E94DC065C01689457F80AC08A
:100B40000C5F1F4FEFE3E983AA24A394B12C640147
:100B5000E89457F853FE29C0342CA114B10451F580
:100B6000332009F46DCFB70180E290E00E94F206D5
:100B70003A94F6CFD8018C9189830E5F1F4FE4CF52
:100B8000F801C190D1908F016B2D70E056FC02C02E
:100B90006FEF7FEFC6010E94E7065C01D9CFB70176
:100BA00080E290E00E94F2064A944A141B0409F085
:100BB000B0F7D2CFF60157FC859157FE81916F01B6
:100BC000B70190E00E94F20631103A94B1E0AB1AFE
:100BD000B108C3CF843619F0893609F071C0F80125
:100BE00057FE67C061917191819191918F01E52DBF
:100BF000EF76DE2E97FF09C09095809570956195F0
:100C00007F4F8F4F9F4F6894D7F82AE030E0A401C0
:100C10000E942207C82EC818AC2C5D2CD6FE0CC032
:100C2000E89450F8CB1440F4D4FE05C0D2FC03C0C5
:100C30005D2D5E7E552EAB2C54FE93C0FE01EC0D57
:100C4000F11D8081803309F085C0652D697E562EA7
:100C5000752D7870372E53FC93C050FE8DC0BC2C80
:100C6000A41410F4B40CBA1854FE90C0B70180E379
:100C700090E00E94F20652FE07C088E751FC88E52A
:100C800090E0B7010E94F206CB1408F48BC0CA941E
:100C9000D12C8FEFC81AD80AC80CD91CD6018E9156
:100CA0006D01B70190E00E94F2068C149D04B1F72B
:100CB00057CF61917191072E000C880B990B96CF3D
:100CC000D52CE894D4F82AE0853729F1F52DF97F61
:100CD000DF2E8037A1F058F48835A1F08F36D1F09F
:100CE000F701868197812F96E2E10C949C07883763
:100CF000B9F7D4FE02C06894D2F820E10CC0689421
:100D0000D4F8F7CF54FE03C02F2F2660D22E20E157
:100D100032E002C028E030E0F801D7FE15C0419172
:100D20005191619171914C875D876E877F878F01AB
:100D3000A4016C857D858E859F850E942207C82E23
:100D4000C818E894D7F868CF81919191AC0170E010
:100D500060E0E9CF52FC02C0A3947ACFA394A3949D
:100D600077CF852D867809F473CFF6CFB70180E26F
:100D700090E00E94F206A394A414C0F3312C74CF27
:100D8000342C3A18A41408F46FCFF8CF852D867848
:100D900009F47ACF8BE251FE80E257FC8DE2B70175
:100DA00090E070CFB70180E390E00E94F206BA9421
:100DB0006BCF8FEF9FEF97CFFC0105906150704094
:100DC0000110D8F7809590958E0F9F1F0895FC0114
:100DD0006150704001900110D8F7809590958E0F6A
:100DE0009F1F08950F931F93CF93DF93182F092F01
:100DF000EB018B8181FD09C01FEF0FEF812F902F39
:100E0000DF91CF911F910F91089582FF14C02E8121
:100E10003F818C819D81281739073CF4E881F98155
:100E2000CF0101969983888310838E819F810196DB
:100E30009F838E83E3CFE885F985812F0995892BE0
:100E4000A1F3DACFFA01AA27283051F1203181F13C
:100E5000E8946F936E7F6E5F7F4F8F4F9F4FAF4FC2
:100E6000B1E03ED0B4E03CD0670F781F891F9A1FD5
:100E7000A11D680F791F8A1F911DA11D6A0F711D89
:100E8000811D911DA11D20D009F468943F912AE095
:100E9000269F11243019305D3193DEF6CF0108957D
:100EA000462F4770405D4193B3E00FD0C9F7F6CFAE
:100EB000462F4F70405D4A3318F0495D31FD405276
:100EC000419302D0A9F7EACFB4E0A695979587950C
:100ED00077956795BA95C9F70097610571050895EB
:100EE0009B01AC010A2E0694579547953795279597
:100EF000BA95C9F7620F731F841F951FA01D08952F
:100F00002F923F924F925F926F927F928F929F9219
:100F1000AF92BF92CF92DF92EF92FF920F931F9307
:100F2000CF93DF93CDB7DEB7CA1BDB0B0FB6F894B8
:100F3000DEBF0FBECDBF09942A88398848885F84F8
:100F40006E847D848C849B84AA84B984C884DF8069
:100F5000EE80FD800C811B81AA81B981CE0FD11D4D
:100F60000FB6F894DEBF0FBECDBFED010895F89423
:020F7000FFCFB1
:0C0F720000001501200025690A0D000098
:00000001FF
