:100000000C9434000C9451000C9451000C94510049
:100010000C9451000C9451000C9451000C9451001C
:100020000C9451000C9451000C9451000C9451000C
:100030000C9451000C9451000C9451000C945100FC
:100040000C9451000C9451000C9451000C945100EC
:100050000C9498060C94AD000C9451000C94510033
:100060000C940F020C94510011241FBECFEFD8E066
:10007000DEBFCDBF11E0A0E0B1E0E6E3F6E102C0F3
:1000800005900D92A432B107D9F722E0A4E2B1E0C5
:1000900001C01D92A333B207E1F70E941F050C9423
:1000A000190B0C940000CF93DF93CDB7DEB78CE72C
:1000B00090E020E4FC0120838AE790E02FE8FC0137
:1000C000208378940000DF91CF910895CF93DF9340
:1000D00000D0CDB7DEB79A8389838CE790E0FC012E
:1000E00020818CE790E02F60FC0120838CE790E07A
:1000F000FC0130818CE790E02FE02327FC01208376
:100100008CE790E0FC018081982F8981292F282B92
:100110008CE790E0FC0120838EE790E0FC01808179
:10012000282F81E090E0098002C0880F991F0A946F
:10013000E2F7282B8EE790E0FC0120838AE790E02D
:10014000FC0120818AE790E02064FC01208300000C
:100150000F900F90DF91CF9108951F920F920FB6DD
:100160000F9211242F933F934F935F936F937F933D
:100170008F939F93AF93BF93EF93FF93CF93DF93AF
:10018000CDB7DEB72C97DEBFCDBF88E790E0FC018E
:1001900080819181292F2F938F9380E091E0892F87
:1001A0008F9380E091E08F93CE0101969F938F9380
:1001B0000E942F080F900F900F900F900F900F90AC
:1001C000CE0101960E94D00600002C960FB6F8943E
:1001D000DEBF0FBECDBFDF91CF91FF91EF91BF91F9
:1001E000AF919F918F917F916F915F914F913F91CF
:1001F0002F910F900FBE0F901F901895CF93DF9304
:10020000CDB7DEB78091250190912601843091050C
:1002100011F480E001C081E0DF91CF910895CF9388
:10022000DF93CDB7DEB788EB90E020E8FC012083B8
:1002300029EB30E089EB90E0F9012081FC0120837B
:1002400087E290E0FC01208187E290E02F7CFC01B6
:10025000208388E290E0FC01208188E290E0206326
:10026000FC01208384E090E0909326018093250197
:1002700078940000DF91CF9108950F931F93CF934F
:10028000DF93CDB7DEB729970FB6F894DEBF0FBE68
:10029000CDBF09831A832B833C834D835E836F8399
:1002A0007887898700000E94FE008115E1F729E028
:1002B000CE010196FC01A4E2B1E001900D922A95D5
:1002C000E1F778948CEB90E025EAFC0120830000B4
:1002D00029960FB6F894DEBF0FBECDBFDF91CF9148
:1002E0001F910F910895CF93DF930F92CDB7DEB793
:1002F000198282E090E090932601809325018091FD
:10030000270190912801009789F4209129013091CB
:100310002A0180912C01882F90E0280F391F8BEB48
:1003200090E0F9012081FC01208313C02BEB30E029
:100330004091290150912A0180912C01882F90E051
:10034000840F951FF9012081FC012083898180643D
:10035000898380912C018F5F80932C0190912C01D7
:1003600080912B01981760F083E090E09093260134
:10037000809325018CEB90E025E8FC0120830CC0E4
:100380008CEB90E0FC0190818981292F282B8CEB4C
:1003900090E02568FC01208300000F90DF91CF9151
:1003A0000895CF93DF93CDB7DEB78091250190916B
:1003B000260183309105F9F08430910540F50097CE
:1003C00029F001978230910510F512C08BEB90E077
:1003D00020912401FC01208381E090E0909326018C
:1003E000809325018CEB90E025E8FC01208314C06C
:1003F0000E94730111C084E090E0909326018093E5
:1004000025018CEB90E025E9FC01208305C08CEBF5
:1004100090E0FC0110820000DF91CF9108951F92BF
:100420000F920FB60F9211242F933F934F935F9328
:100430006F937F938F939F93AF93BF93EF93FF93AC
:10044000CF93DF9300D000D000D0CDB7DEB789EBDB
:1004500090E0FC018081882F90E0887F9927883088
:10046000910509F46AC089EB90E0FC018081882F36
:1004700090E0887F99278831910509F45EC089EB67
:1004800090E0FC018081882F90E0887F9927883256
:10049000910509F452C089EB90E0FC018081882F1E
:1004A00090E0887F99278031910509F446C089EB57
:1004B00090E0FC018081882F90E0887F992780342C
:1004C0009105D9F189EB90E0FC018081882F90E0C3
:1004D000887F99278035910581F189EB90E0FC01B7
:1004E0008081882F90E0887F99278835910529F1B0
:1004F00085E091E00E94D00689EB90E0FC018081CC
:10050000882F90E0292F2F938F938BE091E0892FF4
:100510008F938BE091E08F93CE0101969F938F9301
:100520000E942F080F900F900F900F900F900F9038
:10053000CE0101960E94D00602C00E94D1010F9008
:100540000F900F900F900F900F90DF91CF91FF9130
:10055000EF91BF91AF919F918F917F916F915F913B
:100560004F913F912F910F900FBE0F901F901895B4
:10057000CF93DF93CDB7DEB78CEB90E024E9FC019D
:1005800020830000DF91CF910895CF93DF93CDB703
:10059000DEB700008CEB90E0FC0180818115D4F780
:1005A00089EB90E0FC018081882F90E0887F99277B
:1005B0008830910509F44CC089EB90E0FC01808102
:1005C000882F90E0887F99278831910509F440C0F1
:1005D00089EB90E0FC018081882F90E0887F99274B
:1005E00088329105A9F189EB90E0FC018081882F88
:1005F00090E0887F99278031910551F189EB90E057
:10060000FC018081882F90E0887F992780349105B4
:10061000F9F089EB90E0FC018081882F90E0887FE1
:10062000992780359105A1F089EB90E0FC0180814C
:10063000882F90E0887F99278835910549F080E1DF
:1006400091E00E94D00689EB90E0FC01808101C01E
:1006500080E0DF91CF910895CF93DF93CDB7DEB7E0
:100660008CEB90E024EAFC0120830E94C502DF911C
:10067000CF910895CF93DF93CDB7DEB788EB90E0AD
:1006800020E8FC01208329EB30E089EB90E0F901C0
:100690002081FC01208387E290E0FC01208187E239
:1006A00090E02F7CFC01208388E290E0FC01208117
:1006B00088E290E02063FC01208378940000DF91C1
:1006C000CF910895CF93DF9300D000D000D00F9248
:1006D000CDB7DEB78C837E836D834F830E942C035E
:1006E0008B838B81811511F08B813EC08BEB90E069
:1006F0002C81FC0120838CEB90E024E8FC0120831A
:100700000E94C5028B838B81811511F08B812CC0D7
:100710001A8219821EC089819A812D813E81280FFB
:10072000391F8BEB90E0F9012081FC0120838CEBD9
:1007300090E024E8FC0120830E94C5028B838B811A
:10074000811511F08B8110C089819A8101969A835D
:1007500089838F81882F90E029813A812817390772
:10076000D4F20E94B80280E027960FB6F894DEBF5C
:100770000FBECDBFDF91CF910895CF93DF9300D00F
:1007800000D000D00F92CDB7DEB78C837E836D830F
:100790004F830E942C038B838B81811511F08B81F9
:1007A0005CC08BEB90E02C81FC0120838CEB90E013
:1007B00024E8FC0120830E94C5028B838B81811574
:1007C00011F08B814AC01A8219823BC000008CEB69
:1007D00090E0FC0180818115D4F72BEB30E089811A
:1007E0009A814D815E81840F951FF9012081FC0162
:1007F00020838F81882F90E0019729813A812817E3
:1008000039076CF48CEB90E024ECFC0120830E940F
:10081000C5028B838B81811579F08B811EC08CEB97
:1008200090E024E8FC0120830E94C5028B838B8129
:10083000811511F08B8111C089819A8101969A836B
:1008400089838F81882F90E029813A812817390781
:100850000CF4BCCF0E94B80280E027960FB6F89443
:10086000DEBF0FBECDBFDF91CF910895CF93DF9351
:1008700000D000D000D00F92CDB7DEB78F838F812C
:100880008115F1F08F81882F90E0292F2F938F937E
:1008900082E191E0892F8F9382E191E08F93CE01E5
:1008A00001969F938F930E942F080F900F900F90A7
:1008B0000F900F900F90CE0101960E94D00601C0BC
:1008C000000027960FB6F894DEBF0FBECDBFDF91B4
:1008D000CF9108950F931F93CF93DF93CDB7DEB7DA
:1008E000A2970FB6F894DEBF0FBECDBF8AA31C82BD
:1008F0001B821D828CEE8E8318861F821A861986B3
:10090000CE0182969C878B8781E08D871E860E8123
:100910001F81288539854A855B856C857D858E8517
:100920000E943D018DEE8F87198A188A81E090E040
:100930009B8B8A8BCE0103969D8B8C8B83E08E8B59
:100940001F8A0F85188929893A894B895C896D89A5
:100950007E898F890E943D0100000E94FE00811562
:10096000E1F78C81882F90E0382F22278D81882F06
:1009700090E0822B932B9A8389838A818F9389813C
:100980008F9387E191E0892F8F9387E191E08F9397
:10099000CE014896292F2F938F930E942F080F90F6
:1009A0000F900F900F900F900F90CE0148960E94DD
:1009B000D0060000A2960FB6F894DEBF0FBECDBFE2
:1009C000DF91CF911F910F9108950F931F93CF93B4
:1009D000DF93CDB7DEB72B970FB6F894DEBF0FBE0F
:1009E000CDBF84EF95E29A8389838CEE8B831D8241
:1009F0001C821F821E82CE0101969987888782E021
:100A00008A871B860B811C812D813E814F815885F1
:100A100069857A858B850E943D0100000E94FE0059
:100A20008115E1F7000000002B960FB6F894DEBFA9
:100A30000FBECDBFDF91CF911F910F9108950F93FE
:100A40001F93CF93DF93CDB7DEB7A7970FB6F89478
:100A5000DEBF0FBECDBF0E944C060E940F018CE18D
:100A600091E00E94D00680E090E0AAEFB3E4898391
:100A70009A83AB83BC8320E030E04AE755E4698188
:100A80007A818B819C810E949107DC01CB018D834F
:100A90009E83AF83B88720E030E040E85FE36D815C
:100AA0007E818F8198850E940B0781152CF481E04F
:100AB00090E09A87898740C020E03FEF4FE757E4F6
:100AC0006D817E818F8198850E948C07813054F1E1
:100AD00020E030E040E251E469817A818B819C81A1
:100AE0000E949107DC01CB01BC01CD010E941007DF
:100AF000DC01CB019A87898710C080E991E09C874F
:100B00008B878B859C850197F1F79C878B870000ED
:100B100089859A8501979A87898789859A8500971B
:100B200061F715C06D817E818F8198850E941007C5
:100B3000DC01CB019A87898789859A859E878D8775
:100B40008D859E850197F1F79E878D87000085EF43
:100B500090E09E8F8D8F8CEE8F8F19A218A21BA212
:100B60001AA2CE014D969DA38CA382E08EA31FA254
:100B70000F8D18A129A13AA14BA15CA16DA17EA165
:100B80008FA10E943D018EEC0E946A040E94E50440
:100B900080E090E0AAE7B4E48F87988BA98BBA8BAA
:100BA00020E030E04AE755E46F85788989899A89A1
:100BB0000E949107DC01CB018B8B9C8BAD8BBE8B94
:100BC00020E030E040E85FE36B897C898D899E8975
:100BD0000E940B0781152CF481E090E0988F8F8B99
:100BE00040C020E03FEF4FE757E46B897C898D8957
:100BF0009E890E948C07813054F120E030E040E271
:100C000051E46F85788989899A890E949107DC016E
:100C1000CB01BC01CD010E941007DC01CB01988FF4
:100C20008F8B10C080E991E09A8F898F898D9A8D82
:100C30000197F1F79A8F898F00008F89988D01971E
:100C4000988F8F8B8F89988D009761F715C06B896E
:100C50007C898D899E890E941007DC01CB01988FC9
:100C60008F8B8F89988D9C8F8B8F8B8D9C8D01970F
:100C7000F1F79C8F8B8F000080E291E00E94D006FC
:100C800087EF0E946A0482E291E00E94D0068AEF18
:100C90000E946A0400007ACFCF93DF93CDB7DEB70E
:100CA00085EC90E0FC01108284EC90E027E6FC01EA
:100CB000208381EC90E0FC01108282EC90E026E041
:100CC000FC01208381EC90E0FC01208181EC90E02C
:100CD0002864FC01208381EC90E0FC01208181EC00
:100CE00090E02069FC01208378940000DF91CF918F
:100CF0000895CF93DF930F92CDB7DEB789838091AC
:100D00003202882F90E08F549E4F2981FC0120836E
:100D1000809132028F5F809332028091320281157E
:100D200014F41092320200000F90DF91CF910895D9
:100D30001F920F920FB60F9211242F938F939F93B0
:100D4000EF93FF93CF93DF93CDB7DEB7909131024E
:100D5000809132029817B9F080913102882F90E08B
:100D60008F549E4FFC01208186EC90E0FC01208393
:100D7000809131028F5F8093310280913102811521
:100D800014F4109231020000DF91CF91FF91EF91A6
:100D90009F918F912F910F900FBE0F901F901895DC
:100DA0000F931F93CF93DF9300D00F92CDB7DEB791
:100DB0009B838A8319820EC08981882F90E02A81C3
:100DC0003B81820F931FFC0180810E9479068981FB
:100DD0008F5F89838981082F10E08A819B810E941F
:100DE00026080817190740F380EC90E0FC01808189
:100DF000882F90E080729927009721F086EC90E090
:100E0000FC01108200000F900F900F90DF91CF91A6
:100E10001F910F9108950E943F0708F481E0089503
:100E20000E946B0788F09F5798F0B92F9927B75108
:100E3000B0F0E1F0660F771F881F991F1AF0BA957E
:100E4000C9F714C0B13091F00E948507B1E0089550
:100E50000C948507672F782F8827B85F39F0B93F42
:100E6000CCF3869577956795B395D9F73EF4909531
:100E70008095709561957F4F8F4F9F4F0895990F83
:100E80000008550FAA0BE0E8FEEF16161706E80754
:100E9000F907C0F012161306E407F50798F0621B75
:100EA000730B840B950B39F40A2661F0232B242B4A
:100EB000252B21F408950A2609F4A140A6958FEF69
:100EC000811D811D089557FD9058440F551F59F0FD
:100ED0005F3F71F04795880F97FB991F61F09F3F27
:100EE00079F087950895121613061406551FF2CF50
:100EF0004695F1DF08C0161617061806991FF1CFA0
:100F000086957105610508940895E894BB276627C6
:100F10007727CB0197F908950E943F0708F48FEFD8
:100F200008950E94A4070C9415080E94070838F041
:100F30000E940E0820F0952311F00C94FE070C94EB
:100F4000040811240C9486070E94630770F3959F90
:100F5000C1F3950F50E0551F629FF001729FBB27B0
:100F6000F00DB11D639FAA27F00DB11DAA1F649F4C
:100F70006627B00DA11D661F829F2227B00DA11DFF
:100F8000621F739FB00DA11D621F839FA00D611D85
:100F9000221F749F3327A00D611D231F849F600DA6
:100FA000211D822F762F6A2F11249F5750409AF0CF
:100FB000F1F088234AF0EE0FFF1FBB1F661F771F5B
:100FC000881F91505040A9F79E3F510580F00C9426
:100FD000FE070C9486075F3FE4F3983ED4F38695B2
:100FE00077956795B795F795E7959F5FC1F7FE2BC6
:100FF000880F911D9695879597F9089597F99F67A2
:1010000080E870E060E008959FEF80EC0895002490
:101010000A941616170618060906089500240A945D
:1010200012161306140605060895092E0394000CE3
:1010300011F4882352F0BB0F40F4BF2B11F460FF72
:1010400004C06F5F7F4F8F4F9F4F0895FC01019049
:101050000020E9F7809590958E0F9F1F0895AEE0D0
:10106000B0E0E5E3F8E00C94F00A0D891E8986E013
:101070008C831A8309838FEF9FE79E838D83AE0154
:10108000475E5F4F6F89788DCE0101960E945208AE
:101090002F813885020F131FF80110822E96E4E08D
:1010A0000C940C0BABE0B0E0E8E5F8E00C94E30A3C
:1010B0006C017B018A01FC0117821682838181FF0A
:1010C000DAC19AE0492EF6012381F70123FD8591CB
:1010D00023FF81917F01811509F41FC1853239F405
:1010E00023FD959123FF91917F01953229F4B6015B
:1010F00090E00E94540AE7CF30E0612C512C712C13
:10110000F0E27F1640F59B32D9F058F49032D1F0DE
:101110009332F1F09E3299F576FCFFC0689476F830
:1011200006C09D3291F09033C1F4689470F8F701D5
:1011300023FD959123FF91917F019111E1CF29C06A
:10114000689471F8689472F8F2CF689473F8EFCFEE
:10115000689474F8ECCF77FC1CC080ED890F8A305E
:10116000C8F676FE05C0649C800D1124682EDFCF82
:10117000549C800D1124582E689475F8D8CF9C3655
:1011800019F4689477F8D3CF9C3409F44BC098369F
:1011900071F2892F8F7D8554833008F445C09336D2
:1011A00009F466C0933709F469C0933509F475C032
:1011B000943619F0993609F09FC0F80177FE95C072
:1011C00061917191819191918F01272D2F76722ECE
:1011D00097FF09C090958095709561957F4F8F4FCF
:1011E0009F4F689477F82AE030E0AE014F5F5F4F81
:1011F0005A010E94840A8A19A82E76FEC5C0872D3E
:101200008E7FA61408F0BFC074FE12C172FC06C126
:10121000F72DFE7E7F2EB62C872D8678811509F45A
:10122000C0C001C131E083CF3115F9F0085F1F4F15
:101230008FE3898388248394912CAE014F5F5F4FA5
:101240005A01E89477F873FC03C085149104B0F157
:1012500081149104D1F5511409F435CFB60180E21F
:1012600090E00E94540A5A94F6CF0C5F1F4FE0CFD3
:10127000F801808189830E5F1F4FDCCFF801A190B8
:10128000B1908F01662D70E076FC02C06FEF7FEFAA
:10129000C5010E94490A4C01D4CFF801A190B19038
:1012A0008F01662D70E076FC02C06FEF7FEFC50105
:1012B0000E943E0A4C01689477F8C5CFB60180E2DF
:1012C00090E00E94540A5A94C0CFF50177FC8591B2
:1012D00077FE81915F01B60190E00E94540A51109F
:1012E0005A94F1E08F1A9108B3CF61917191072E52
:1012F000000C880B990B68CF372CE89434F82AE05F
:1013000030E0953739F1572D597F352E903799F0C8
:1013100058F49835A9F09F36D9F0F6018681978167
:101320002B96E1E10C94FF0A9837B9F774FC05C0DD
:1013300020E130E00FC0689434F8689432F8F8CFB8
:1013400074FE03C0872D8660382E20E132E002C093
:1013500028E030E0F80137FE11C061917191819170
:1013600091918F01FE0131965F01AF010E94840AC5
:101370008A19A82E732CE89477F83FCF6191719168
:1013800080E090E0EECF782EBA2C74FE45CFFE01BF
:10139000EA0DF11D8081803309F043C0272D297E9D
:1013A000722E73FC0EC070FE4FC06A2CB51418F478
:1013B000650C6B18B52C852D8B195B1408F480E037
:1013C000B80EB51408F042C05B1874FE41C0B601F7
:1013D00080E390E00E94540A72FE09C088E590E024
:1013E00071FC02C088E790E0B6010E94540AA6147E
:1013F000D8F1AA94B12C4FEFA41AB40ACE010196E9
:101400003C01A80EB91EF50182915F01B60190E082
:101410000E94540A6A147B04B1F71DCFB62C782EB3
:10142000B6CF72FC02C0B394BCCFB394B394B9CF1F
:10143000B62C782EF1CEB60180E290E00E94540ADC
:1014400033943514C0F3B7CF3B2CFBCF512CBDCF19
:10145000872D8678811559F280E271FC8BE277FC4A
:101460008DE2B60190E0C1CFB60180E390E00E942A
:10147000540A6A94BCCF8FEF9FEF52CFFC010590C6
:10148000615070400110D8F7809590958E0F9F1F86
:101490000895FC016150704001900110D8F78095CB
:1014A00090958E0F9F1F08950F931F93CF93DF93F7
:1014B000182F092FEB018B8181FD09C01FEF0FEF62
:1014C000812F902FDF91CF911F910F91089582FF6F
:1014D00014C02E813F818C819D81281739073CF4EF
:1014E000E881F981CF0101969983888310838E81E9
:1014F0009F8101969F838E83E3CFE885F985812FB5
:101500000995892BA1F3DACFFA01AA27283051F1E6
:10151000203181F1E8946F936E7F6E5F7F4F8F4F24
:101520009F4FAF4FB1E03ED0B4E03CD0670F781F83
:10153000891F9A1FA11D680F791F8A1F911DA11D68
:101540006A0F711D811D911DA11D20D009F46894A1
:101550003F912AE0269F11243019305D3193DEF649
:10156000CF010895462F4770405D4193B3E00FD0FF
:10157000C9F7F6CF462F4F70405D4A3318F0495DEA
:1015800031FD4052419302D0A9F7EACFB4E0A695CD
:101590009795879577956795BA95C9F700976105EF
:1015A000710508959B01AC010A2E06945795479545
:1015B00037952795BA95C9F7620F731F841F951F3A
:1015C000A01D08952F923F924F925F926F927F924B
:1015D0008F929F92AF92BF92CF92DF92EF92FF9243
:1015E0000F931F93CF93DF93CDB7DEB7CA1BDB0BEF
:1015F0000FB6F894DEBF0FBECDBF09942A88398894
:1016000048885F846E847D848C849B84AA84B9849A
:10161000C884DF80EE80FD800C811B81AA81B981A6
:10162000CE0FD11D0FB6F894DEBF0FBECDBFED01BA
:061630000895F894FFCFBD
:1016360025690A0D0045545743320025690A0D00F5
:10164600450025690A0D0025750A0D00420A0D00A0
:0416560050005400EC
:00000001FF
